:020000040800F2
:1000000000100020490F0008D90E0008DB0E000880
:1000100000000000000000000000000000000000E0
:10002000000000000000000000000000DD0E0008DD
:100030000000000000000000DF0E0008E10E0008D4
:10004000990F000800000000990F0008990F0008A0
:10005000990F0008990F0008990F0008990F0008E0
:1000600000000000990F0008990F0008990F000880
:10007000990F0008990F0008990F00080000000070
:10008000990F00080000000000000000990F000810
:1000900000000000990F0008990F0008990F000850
:1000A00000000000990F000800000000990F0008F0
:1000B0000000000000000000000000000000000040
:1000C00010B5064C2378002B07D1054B002B02D02E
:1000D000044800E000BF0123237010BD040000208D
:1000E0000000000008100008044B10B5002B03D0DE
:1000F0000349044800E000BF10BDC04600000000F6
:10010000080000200810000802B4714649084900A0
:10011000095C49008E4402BC7047C04603B4714676
:10012000490840004900095A49008E4403BC704701
:10013000002243088B4274D303098B425FD3030A26
:100140008B4244D3030B8B4228D3030C8B420DD339
:10015000FF22090212BA030C8B4202D312120902C7
:1001600065D0030B8B4219D300E0090AC30B8B4205
:1001700001D3CB03C01A5241830B8B4201D38B03B3
:10018000C01A5241430B8B4201D34B03C01A524158
:10019000030B8B4201D30B03C01A5241C30A8B429B
:1001A00001D3CB02C01A5241830A8B4201D38B0286
:1001B000C01A5241430A8B4201D34B02C01A52412A
:1001C000030A8B4201D30B02C01A5241CDD2C3099C
:1001D0008B4201D3CB01C01A524183098B4201D318
:1001E0008B01C01A524143098B4201D34B01C01A03
:1001F000524103098B4201D30B01C01A5241C3087B
:100200008B4201D3CB00C01A524183088B4201D3E9
:100210008B00C01A524143088B4201D34B00C01AD5
:100220005241411A00D20146524110467047FFE741
:1002300001B5002000F006F802BDC0460029F7D045
:1002400076E770477047C04610B5040000F010FC18
:10025000FA218900FFF76CFF00F056F80120002218
:100260002100404200F020F8002010BD1023064A73
:1002700010B5116800200B431360FFF7E5FF00F095
:1002800013FE002010BDC04600200240024A136841
:10029000013313607047C0463C000020014B1868D2
:1002A0007047C0463C00002070B58901002814DA70
:1002B0000F23C0B20340083B114A9B089B009B18C8
:1002C000032210409040FC321500114085408140CF
:1002D000DC69AC432143D96170BD03258308284004
:1002E000A840FC352E00074A9B009B18C022864080
:1002F0002940814092009C58B44321439950EBE738
:1003000000ED00E000E100E0094A431E01209342B5
:100310000DD8C021074A08485360036A09061B022A
:100320001B0A0B4303620020072390601360704791
:10033000FFFFFF0010E000E000ED00E0F0B50B680B
:1003400087B0029300230191029ADA4001D107B0ED
:10035000F0BD01229A4003920399029A0A4000924A
:1003600000D18CE0019A1021526816008E43022EB3
:100370000ED107251D40AD000139A940DC08A400BD
:100380000419276A8F4301990969A9400F4327621D
:1003900003245F00BC40E4430568013E2540AC46B1
:1003A00003251540BD4061460D430560012E0FD861
:1003B00001998668CD682640BD4035438560466812
:1003C000039915098E4301210D409D403543456039
:1003D000C56801992C408D688021BD4049052C439A
:1003E000C4600A424BD00121264C0326A5691E4059
:1003F0000D43A561A4699D080C400594059C0F243C
:100400002149AD00B6006D18B4409021AF68C90510
:10041000A743002488420CD01C490134884208D0EC
:100420001B490134884204D01A490334884200D160
:10043000023CB44000993C430E00AC60164CCD43E6
:1004400027683E43D10301D43E002E4026606768F2
:10045000009E3E43910301D43E002E406660A76893
:10046000009E3E43D10201D43E002E40A660E668C5
:10047000009F3743920201D42E403700E7600133DA
:1004800062E7C0460010024000000140000400483E
:1004900000080048000C00480004014000690840C2
:1004A000411E8841C0B27047002A01D08161704767
:1004B0008162FCE770B504000120002C14D0236891
:1004C0000F4A1A600F4A1A6062685A60A2689A60FE
:1004D000FFF7E4FE05002368D868002805D11969F4
:1004E000E268914208D01A6170BDFFF7D7FE401B49
:1004F0002728F0D90320F7E7034A1A60F4E7C0463B
:10050000CCCC000055550000AAAA00000368024A9E
:1005100000201A607047C046AAAA0000F0B5036820
:1005200085B00500DB072FD42B689B0700D581E041
:100530002B681B0700D5BCE02B685B0700D5DFE00C
:100540002B68DB061AD56A69B54C0423012A00D052
:100550004BE1616B02260B436363636B1A43626377
:10056000FFF79CFE0700636B334200D136E1F821B0
:10057000626BAB698A43DB0013436363296A00291A
:1005800000D059E1002013E00C21A54C62680A401C
:10059000042A06D063680B40082B0BD16368DB0389
:1005A00008D523689B03BFD56B68002BBCD1012005
:1005B00005B0F0BD6B68012B13D1802322685B026C
:1005C00013432360FFF76AFE80260700B602236804
:1005D0003342A9D1FFF762FEC01B6428F7D903207C
:1005E000E6E7002B16D123688E4A8026134023604D
:1005F00023688D4AB60213402360FFF74FFE0700C1
:100600002368334200D18FE7FFF748FEC01B642800
:10061000F6D9E4E7052B05D180232268DB021343DA
:100620002360CAE723687F4A1340236023687E4A19
:100630001340C6E70C227A4C6368134206D0636805
:100640001340082B10D16368DB030DD423689B078C
:1006500002D5EB68012BAAD1F82122682B698A43C5
:10066000DB001343236063E7EA680123002A0FD00D
:100670002268022613432360FFF710FE0700236859
:100680003342E9D1FFF70AFEC01B0228F7D9A6E7DB
:10069000226802269A432260FFF700FE07002368C3
:1006A000334200D144E7FFF7F9FDC01B0228F6D919
:1006B00095E7EA6901235A4C002A10D0626A0226A3
:1006C00013436362FFF7EAFD0700636A334200D019
:1006D00032E7FFF7E3FDC01B0228F6D97FE7626A25
:1006E00002269A436262FFF7D9FD0700636A33422C
:1006F00000D121E7FFF7D2FDC01B0228F6D96EE733
:1007000080220021464C5205E3690091134208D132
:10071000E3691343E361E36913400393039B0123FC
:1007200000938027414E7F0033683B4206D0AB6880
:10073000012B13D1226A1343236230E033683B4319
:100740003360FFF7ABFD019033683B42EFD1FFF719
:10075000A5FD019BC01A6428F6D940E70122002BB1
:1007600014D1236A022793432362236A03329343FB
:100770002362FFF793FD0600236A3B4225D0FFF773
:100780008DFD2B4B801B9842F6D928E7052B0BD10A
:10079000216A013B0B432362236A1A432262FFF75B
:1007A0007DFD022706000DE0236A934304222362A5
:1007B000236A9343C0E7FFF771FD1D4B801B9842EE
:1007C00000D90CE7236A3B42F5D0009B012B00D0F7
:1007D000B6E6E369174A1340E361B1E6FFF75EFD51
:1007E000C01B022800D8BEE6F9E6053203D1626BD1
:1007F0009A436263BBE6626B022613430122636382
:10080000636B93436363FFF749FD0700636B3342F8
:1008100000D1B3E6FFF742FDC01B0228F6D9DEE6A1
:1008200000100240FFFFFEFFFFFFFBFF00700040D3
:1008300088130000FFFFFFEF0C22264C01206368A5
:100840001340082B00D1B3E62368234A13402360EA
:1008500002292FD1FFF722FD80260700B604236866
:10086000334221D10F22E36A9343EA6A1343E362DE
:10087000696AAB6A62680B43184980250A401343D2
:100880006360802322685B0413432360FFF706FD47
:100890000600AD0423682B4200D073E6FFF7FEFC90
:1008A000801B0228F6D99AE6FFF7F8FCC01B022845
:1008B000D5D994E6FFF7F2FC80250600AD04236845
:1008C0002B4200D15EE6FFF7E9FC801B0228F6D937
:1008D00085E6C04600100240FFFFFFFEFFFFC2FF9B
:1008E00070B5144C88B010222100684600F07AFBE5
:1008F000210004AD10221031280000F073FB0C22FF
:100900000D4E73681A40082A11D10F206A46990CBF
:100910000140545CF26A0240A95CDB0305D507483C
:10092000FFF706FC604308B070BD0548FAE70348CE
:10093000F9E7C046201000080010024000127A00BB
:1009400000093D00F7B50122434C060023680F0063
:1009500013408B421CD33268930723D4D30729D486
:10096000012322681A40974267D333683B4C5B07E8
:100970006AD4FFF7B5FF6368394A1B061B0FD35CC7
:10098000D840384B18600020FFF75EFC002008E0DC
:10099000236893430B432360236813409942DAD0C2
:1009A0000120FEBDF0202D494B688343B06803430E
:1009B0004B60D3E7294D72682B68012A1AD19B033B
:1009C000EED503216B688B4313436B60FFF766FC26
:1009D00073680190012B15D10C226B681340042B16
:1009E000BED0FFF75BFC019BC01A1F4B9842F3D9A6
:1009F0000320D6E7022A02D19B01E2D4D0E79B076D
:100A0000DFD4CDE7022B12D00C226B681342A7D0A3
:100A1000FFF744FC019BC01A134B9842F4D9E7E757
:100A2000FFF73CFC019BC01A0F4B9842E0D80C2208
:100A30006B681340082BF3D192E722689A43226037
:100A400022681A42ACD190E76368084A1340F26802
:100A5000134363608DE7C04600200240001002404F
:100A6000401000080000002088130000FFF8FFFF7E
:100A7000014B18687047C0460000002010B51024D4
:100A800090B03022002104A800F0B5FA2200002125
:100A9000684600F0B0FA0A2304A80493093B0793C0
:100AA0000B930894FFF73AFD072300210093684653
:100AB0009933019102930391FFF744FF10B010BDE9
:100AC000F0B5012406000025C30885B02340039338
:100AD00083082340029343082340070901932740DA
:100AE000681E032803D8FFF70FFB0914171A3200FA
:100AF0008021224089009020C00502E00221019A55
:100B000008480135EDB2FFF7CFFC052DE8D105B05F
:100B1000F0BD029A8021EEE7039A4021EBE73A000C
:100B20002021E8E70004004870B5FFF7B7FB9D4CB3
:100B30002368C01A632840D9FFF7B0FB80212060EA
:100B40009020C900C005FFF7A9FC974B021E03D0F7
:100B50001A6801321A6007E01968322910D990200A
:100B60000121C005FFF7A0FC904D2878052824D866
:100B7000FFF7D4FA0B002F0051009F00BE001101B7
:100B80000A29E7D902391960EEE7894A012013786A
:100B90000133DBB21370022B58D90320052B55D932
:100BA0000720082B52D90F200B2B4FD91F200E2BBB
:100BB0004CD90023137001332B70FFF76FFB7D4B73
:100BC000984205D9902000220121C005FFF76CFC56
:100BD00070BD774C23780133DBB22370042B12D124
:100BE0000020FFF76DFF80219020C900C005FFF7AE
:100BF00055FC0028E1D002232B706F4B6F4A136025
:100C00006F4A1360D9E7082BEDD91F20FFF758FF73
:100C100000232370E7E76A4B05211A68541E1C6005
:100C2000664B1E68B000FFF783FA844211D91E227A
:100C3000644B1A700132644B1A705D4C2378013397
:100C4000DBB22370042B6CD15E4B1878FFF738FFB2
:100C5000B3E7032005217043FFF76AFA844204D901
:100C60001C22584B1A700232E5E770000521FFF78D
:100C70005FFA844204D91822524B1A700432DAE720
:100C800005213000FFF754FA844204D910224D4B5D
:100C90001A700832CFE7844206D2002C06D0002218
:100CA000484B1A701032C6E7002CC6D103232B70B4
:100CB000C3E73F4C23780133DBB22370022B0FD103
:100CC0000020FFF7FDFE80219020C900C005FFF73E
:100CD000E5FB002800D170E704232B703B4B8DE728
:100CE000082BF0D91F20FFF7EBFE00232370EAE763
:100CF000334B05211A68541E1C60304B1E68B0002F
:100D0000FFF716FA844216D91E222E4B1A700132B2
:100D10002D4B1A70264C23780133DBB22370022B43
:100D200092D0082B00D848E7274B1878FFF7C8FE69
:100D30000023237041E7032005217043FFF7F8F9F2
:100D4000844204D91C221F4B1A700232E0E7700063
:100D50000521FFF7EDF9844204D91822194B1A70C6
:100D60000432D5E705213000FFF7E2F9844204D9C7
:100D70001022144B1A700832CAE7844206D2002CA3
:100D800006D000220F4B1A701032C1E7002CC1D1DF
:100D900005232B70BEE7902000220121C005FFF73C
:100DA00083FB0AE7340000203000002038000020D8
:100DB0002000002080EE3600983A00002800002035
:100DC000240000202C0000202D000020B80B000083
:100DD00030B589B0FFF74AFAFFF750FE1422002120
:100DE00003A800F008F98020294B800259690024EB
:100DF0000143596180215A69C90202400192019A56
:100E00005A6990200A435A6101225B69C0050B4070
:100E100002931100029BFFF747FBB82190200022AC
:100E20008900C005FFF740FB002202211948FFF7A7
:100E30003BFB90200125184B03A9C00503930495A3
:100E400005940694FFF77AFA022303A91148039345
:100E5000049505940694FFF771FA80239020DB0037
:100E6000C00503A9039304940594FFF767FA0B4D9B
:100E70000B4B28002B600B4B6C60EB60AB60FFF7FB
:100E800019FB2800FFF742FBFFF74EFEF9E7C046CB
:100E90000010024000040048E10200004000002071
:100EA00000300040FF0F000001200A4B82B099691A
:100EB0000143996180219A69490502400092009A94
:100EC000DA690A43DA61DB690B400193019B02B0E6
:100ED0007047C046001002407047FEE770477047F9
:100EE00010B5FFF7D3F910BD0121114B11481A6855
:100EF0000A431A605A6802405A601A680E48024053
:100F00001A601A680D4802401A605A680C4802407C
:100F10000F205A60DA6A8243DA621A6B094802408B
:100F20001A635A6B8A435A6300229A607047C0461C
:100F3000001002400CB8FF08FFFFF6FEFFFFFBFFAA
:100F4000FFFFC0FFECFEFFFF0D4885460D480E4930
:100F50000E4A002302E0D458C4500433C4188C4213
:100F6000F9D30B4A0B4C002301E013600432A24278
:100F7000FBD3FFF7B9FF00F011F8FFF729FFFEE7F9
:100F8000001000200000002004000020581000087D
:100F90000400002050000020FEE7000070B500268D
:100FA0000C4D0D4C641BA410A64209D1002600F084
:100FB0002BF80A4D0A4C641BA410A64205D170BD43
:100FC000B300EB5898470136EEE7B300EB5898476B
:100FD0000136F2E7501000085010000850100008C9
:100FE00054100008002310B59A4200D110BDCC5C0B
:100FF000C4540133F8E703008218934200D17047CC
:1010000019700133F9E70000F8B5C046F8BC08BC18
:101010009E467047F8B5C046F8BC08BC9E4670476F
:1010200002030405060708090A0B0C0D0E0F101029
:101030000102030405060708090A0B0C0D0E0F1028
:101040000000000000000000010203040607080978
:04105000E9000008AB
:04105400C1000008CF
:0410580000127A0008
:0400000508000F4997
:00000001FF
