:020000040800F2
:1000000000100020990F0008290F00082B0F00088E
:1000100000000000000000000000000000000000E0
:100020000000000000000000000000002D0F00088C
:1000300000000000000000002F0F0008310F000832
:10004000E90F000800000000E90F0008E90F0008B0
:10005000E90F0008E90F0008E90F0008E90F0008A0
:1000600000000000E90F0008E90F0008E90F000890
:10007000E90F0008E90F0008E90F00080000000080
:10008000E90F00080000000000000000E90F000870
:1000900000000000E90F0008E90F0008E90F000860
:1000A00000000000E90F000800000000E90F000850
:1000B0000000000000000000000000000000000040
:1000C00010B5064C2378002B07D1054B002B02D02E
:1000D000044800E000BF0123237010BD040000208D
:1000E0000000000058100008044B10B5002B03D08E
:1000F0000349044800E000BF10BDC04600000000F6
:10010000080000205810000802B471464908490050
:10011000095C49008E4402BC7047C04603B4714676
:10012000490840004900095A49008E4403BC704701
:10013000002243088B4274D303098B425FD3030A26
:100140008B4244D3030B8B4228D3030C8B420DD339
:10015000FF22090212BA030C8B4202D312120902C7
:1001600065D0030B8B4219D300E0090AC30B8B4205
:1001700001D3CB03C01A5241830B8B4201D38B03B3
:10018000C01A5241430B8B4201D34B03C01A524158
:10019000030B8B4201D30B03C01A5241C30A8B429B
:1001A00001D3CB02C01A5241830A8B4201D38B0286
:1001B000C01A5241430A8B4201D34B02C01A52412A
:1001C000030A8B4201D30B02C01A5241CDD2C3099C
:1001D0008B4201D3CB01C01A524183098B4201D318
:1001E0008B01C01A524143098B4201D34B01C01A03
:1001F000524103098B4201D30B01C01A5241C3087B
:100200008B4201D3CB00C01A524183088B4201D3E9
:100210008B00C01A524143088B4201D34B00C01AD5
:100220005241411A00D20146524110467047FFE741
:1002300001B5002000F006F802BDC0460029F7D045
:1002400076E770477047C04610B5040000F01CFC0C
:10025000FA218900FFF76CFF00F060F8012000220E
:100260002100404200F030F8002010BD1023064A63
:1002700010B5116800200B431360FFF7E5FF00F095
:100280003BFE002010BDC04600200240024A136819
:10029000013313607047C0463C000020014B1868D2
:1002A0007047C0463C00002037B50190FFF7F6FFCD
:1002B000019C0500631C5A1E9341E418FFF7EEFFF2
:1002C000401BA042FAD337BD30B5FF2503242A00D6
:1002D000C3B21C40E400A24089012940D243A1409E
:1002E00000280BDA0F200340083B0A489B089B00BC
:1002F0001B18D86902401143D96130BD064B8008F4
:100300008000C018C0239B00C45822401143C15034
:10031000F3E7C04600ED00E000E100E0094A431EBB
:10032000012093420DD8C021074A08485360036A50
:1003300009061B021B0A0B4303620020072390607F
:1003400013607047FFFFFF0010E000E000ED00E0E9
:10035000F0B50B6887B0039300230191039ADA404C
:1003600001D107B0F0BD01229A4002920299039A8E
:100370000A40009200D18CE0019A102152681600C8
:100380008E43022E0ED107251D40AD000139A94034
:10039000DC08A4000419276A8F4301990969A94060
:1003A0000F43276203245F00BC40E4430568013E1D
:1003B0002540AC4603251540BD4061460D43056010
:1003C000012E0FD801998668CD682640BD4035437F
:1003D00085604668029915098E4301210D409D40B4
:1003E00035434560C56801992C408D688021BD402A
:1003F00049052C43C4600A424BD00121264C0326F8
:10040000A5691E400D43A561A4699D080C40059493
:10041000059C0F242149AD00B6006D18B440902111
:10042000AF68C905A743002488420CD01C49013499
:10043000884208D01B490134884204D01A49033449
:10044000884200D1023CB44000993C430E00AC60AD
:10045000164CCD4327683E43D10301D43E002E40C5
:1004600026606768009E3E43910301D43E002E4003
:100470006660A768009E3E43D10201D43E002E4034
:10048000A660E668009F3743920201D42E403700F1
:10049000E760013362E7C0460010024000000140FF
:1004A0000004004800080048000C00480004014017
:1004B00000690840411E8841C0B27047002A01D03F
:1004C000816170478162FCE770B504000120002C57
:1004D00014D023680F4A1A600F4A1A6062685A6083
:1004E000A2689A60FFF7DAFE05002368D868002842
:1004F00005D11969E268914208D01A6170BDFFF711
:10050000CDFE401B2728F0D90320F7E7034A1A60E5
:10051000F4E7C046CCCC000055550000AAAA000064
:100520000368024A00201A607047C046AAAA000069
:10053000F0B5036885B00500DB072FD42B689B0757
:1005400000D581E02B681B0700D5BCE02B685B075A
:1005500000D5DFE02B68DB061AD56A69B54C0423A9
:10056000012A00D04BE1616B02260B436363636B8E
:100570001A436263FFF792FE0700636B334200D1B8
:1005800036E1F821626BAB698A43DB001343636396
:10059000296A002900D059E1002013E00C21A54C64
:1005A00062680A40042A06D063680B40082B0BD10E
:1005B0006368DB0308D523689B03BFD56B68002BFA
:1005C000BCD1012005B0F0BD6B68012B13D1802395
:1005D00022685B0213432360FFF760FE802607005A
:1005E000B60223683342A9D1FFF758FEC01B642826
:1005F000F7D90320E6E7002B16D123688E4A802620
:100600001340236023688D4AB60213402360FFF72E
:1006100045FE07002368334200D18FE7FFF73EFE17
:10062000C01B6428F6D9E4E7052B05D18023226896
:10063000DB0213432360CAE723687F4A1340236029
:1006400023687E4A1340C6E70C227A4C6368134243
:1006500006D063681340082B10D16368DB030DD408
:1006600023689B0702D5EB68012BAAD1F8212268E9
:100670002B698A43DB001343236063E7EA680123A5
:10068000002A0FD02268022613432360FFF706FEDC
:10069000070023683342E9D1FFF700FEC01B0228A0
:1006A000F7D9A6E7226802269A432260FFF7F6FDF3
:1006B00007002368334200D144E7FFF7EFFDC01B7A
:1006C0000228F6D995E7EA6901235A4C002A10D08E
:1006D000626A022613436362FFF7E0FD0700636A64
:1006E000334200D032E7FFF7D9FDC01B0228F6D90C
:1006F0007FE7626A02269A436262FFF7CFFD070036
:10070000636A334200D121E7FFF7C8FDC01B02280E
:10071000F6D96EE780220021464C5205E36900912C
:10072000134208D1E3691343E361E3691340039380
:10073000039B012300938027414E7F0033683B4297
:1007400006D0AB68012B13D1226A1343236230E039
:1007500033683B433360FFF7A1FD019033683B42B0
:10076000EFD1FFF79BFD019BC01A6428F6D940E743
:100770000122002B14D1236A022793432362236AA8
:10078000033293432362FFF789FD0600236A3B424D
:1007900025D0FFF783FD2B4B801B9842F6D928E725
:1007A000052B0BD1216A013B0B432362236A1A43B9
:1007B0002262FFF773FD022706000DE0236A9343D0
:1007C00004222362236A9343C0E7FFF767FD1D4BB2
:1007D000801B984200D90CE7236A3B42F5D0009B6E
:1007E000012B00D0B6E6E369174A1340E361B1E696
:1007F000FFF754FDC01B022800D8BEE6F9E605321B
:1008000003D1626B9A436263BBE6626B02261343B9
:1008100001226363636B93436363FFF73FFD07004C
:10082000636B334200D1B3E6FFF738FDC01B0228EB
:10083000F6D9DEE600100240FFFFFEFFFFFFFBFFE0
:100840000070004088130000FFFFFFEF0C22264CD1
:10085000012063681340082B00D1B3E62368234AC4
:100860001340236002292FD1FFF718FD80260700CF
:10087000B6042368334221D10F22E36A9343EA6A24
:100880001343E362696AAB6A62680B4318498025C7
:100890000A4013436360802322685B041343236090
:1008A000FFF7FCFC0600AD0423682B4200D073E682
:1008B000FFF7F4FC801B0228F6D99AE6FFF7EEFC5E
:1008C000C01B0228D5D994E6FFF7E8FC8025060076
:1008D000AD0423682B4200D15EE6FFF7DFFC801BEE
:1008E0000228F6D985E6C04600100240FFFFFFFE51
:1008F000FFFFC2FF70B5144C88B01022210068467B
:1009000000F098FB210004AD10221031280000F007
:1009100091FB0C220D4E73681A40082A11D10F204A
:100920006A46990C0140545CF26A0240A95CDB0300
:1009300005D50748FFF7FCFB604308B070BD0548CC
:10094000FAE70348F9E7C0467010000800100240BB
:1009500000127A0000093D00F7B50122444C060060
:1009600023680F0013408B421DD33268930724D4B1
:10097000D3072AD4012322681A40BA4268D83368C0
:100980003C4C5B0700D56BE0FFF7B4FF63683A4A65
:100990001B061B0FD35CD840384B18600020FFF7B4
:1009A00053FC002008E0236893430B432360236833
:1009B00013408B42D9D00120FEBDF0202D494B6859
:1009C0008343B06803434B60D2E72A4D72682B68BB
:1009D000012A1AD19B03EED503216B688B43134385
:1009E0006B60FFF75BFC73680190012B15D10C2243
:1009F0006B681340042BBDD0FFF750FC019BC01A5D
:100A00001F4B9842F3D90320D6E7022A02D19B015B
:100A1000E2D4D0E79B07DFD4CDE7022B12D00C2223
:100A20006B681342A6D0FFF739FC019BC01A144B28
:100A30009842F4D9E7E7FFF731FC019BC01A104B4D
:100A40009842E0D80C226B681340082BF3D191E751
:100A500022689A43226022681A4200D18FE7AAE7EF
:100A60006368084A1340F268134363608CE7C0462A
:100A700000200240001002409010000800000020FA
:100A800088130000FFF8FFFF014B18687047C0464D
:100A90000000002010B5102490B02C22002105A8E1
:100AA00000F0D1FA22000021684600F0CCFA0A23B7
:100AB00004A80493093B07930B930894FFF738FDB0
:100AC0000723002100936846993301910293039113
:100AD000FFF742FF10B010BDF0B50124060000255D
:100AE000C30885B02340039383082340029343083F
:100AF0002340070901932740681E032803D8FFF706
:100B000003FB0914171A320080212240890090202B
:100B1000C00502E00221019A08480135EDB2FFF755
:100B2000CDFC052DE8D105B0F0BD029A8021EEE79D
:100B3000039A4021EBE73A002021E8E7000400484F
:100B400070B5FFF7ABFBAA4CAA4D2368C01A632807
:100B500043D9FFF7A3FB802120609020C900C00586
:100B6000FFF7A6FCA44B041E1A6802D001321A60DB
:100B70000AE0322A13D91420FFF796FB90202200B6
:100B80000121C005FFF79AFC2878052825D8FFF732
:100B9000C5FA0C003E006000B200D10028010A2A0C
:100BA00001D9023AE3E71860EEE7944A012013788E
:100BB0000133DBB21370022B66D90320052B63D9F6
:100BC0000720082B60D90F200B2B5DD91F200E2B7F
:100BD0005AD90023137001332B702C78012C0AD1C1
:100BE000FFF75CFB864B984205D99020002221003C
:100BF000C005FFF763FCFFF751FB824B984205D914
:100C0000902000220121C005FFF758FC70BD7B4CED
:100C100023780133DBB22370042B12D10020FFF7BD
:100C20005BFF80219020C900C005FFF741FC002830
:100C3000D3D002232B70744B744A1360744A136030
:100C4000CBE7082BEDD91F20FFF746FF00232370C9
:100C5000E7E76F4B05211A68541E1C606B4B1E683A
:100C6000B000FFF765FA844211D91E22694B1A7051
:100C7000694B01321A70614C23780133DBB2237067
:100C8000042B70D1634B1878FFF726FFA5E70320EC
:100C900005217043FFF74CFA844205D91C225D4BB5
:100CA0001A705D4B0232E5E770000521FFF740FA4C
:100CB000844205D91822574B1A70574B0432D9E792
:100CC00005213000FFF734FA844205D91022514B38
:100CD0001A70514B0832CDE7844207D2002C07D05E
:100CE00000224C4B1A704C4B1032C3E7002CC2D17F
:100CF00003232B70BFE7414C23780133DBB2237011
:100D0000022B0FD10020FFF7E7FE80219020C900C1
:100D1000C005FFF7CDFB002800D15EE704232B7050
:100D20003E4B89E7082BF0D91F20FFF7D5FE0023A3
:100D30002370EAE7364B05211A68541E1C60334BBA
:100D40001E68B000FFF7F4F9844216D91E22314B19
:100D50001A70314B01321A70284C23780133DBB200
:100D60002370022B8ED0082B00D836E72A4B187838
:100D7000FFF7B2FE002323702FE703200521704305
:100D8000FFF7D6F9844205D91C22224B1A70224B58
:100D90000232E0E770000521FFF7CAF9844205D965
:100DA00018221C4B1A701C4B0432D4E7052130006A
:100DB000FFF7BEF9844205D91022164B1A70164B64
:100DC0000832C8E7844207D2002C07D00022114B1A
:100DD0001A70114B1032BEE7002CBDD105232B70C9
:100DE000BAE7902000220121C005FFF767FBF4E677
:100DF00034000020380000203000002020000020B7
:100E000060EA000080EE3600983A000028000020DA
:100E1000240000202C0000202D000020B80B000032
:100E200030B589B0FFF722FAFFF734FE1422002113
:100E300003A800F008F98020294B8002596900249A
:100E40000143596180215A69C90202400192019A05
:100E50005A6990200A435A6101225B69C0050B4020
:100E600002931100029BFFF729FBB821902000227A
:100E70008900C005FFF722FB002202211948FFF775
:100E80001DFB90200125184B03A9C0050393049571
:100E900005940694FFF75CFA022303A91148039313
:100EA000049505940694FFF753FA80239020DB0005
:100EB000C00503A9039304940594FFF749FA0B4D69
:100EC0000B4B28002B600B4B6C60EB60AB60FFF7AB
:100ED000FBFA2800FFF724FBFFF732FEF9E7C046D4
:100EE0000010024000040048E10200004000002021
:100EF00000300040FF0F000001200A4B82B09969CA
:100F00000143996180219A69490502400092009A43
:100F1000DA690A43DA61DB690B400193019B02B095
:100F20007047C046001002407047FEE770477047A8
:100F300010B5FFF7ABF910BD0121114B11481A682C
:100F40000A431A605A6802405A601A680E48024002
:100F50001A601A680D4802401A605A680C4802402C
:100F60000F205A60DA6A8243DA621A6B094802403B
:100F70001A635A6B8A435A6300229A607047C046CC
:100F8000001002400CB8FF08FFFFF6FEFFFFFBFF5A
:100F9000FFFFC0FFECFEFFFF0D4885460D480E49E0
:100FA0000E4A002302E0D458C4500433C4188C42C3
:100FB000F9D30B4A0B4C002301E013600432A24228
:100FC000FBD3FFF7B9FF00F011F8FFF729FFFEE7A9
:100FD000001000200000002004000020A8100008DD
:100FE0000400002050000020FEE7000070B500263D
:100FF0000C4D0D4C641BA410A64209D1002600F034
:101000002BF80A4D0A4C641BA410A64205D170BDF2
:10101000B300EB5898470136EEE7B300EB5898471A
:101020000136F2E7A0100008A0100008A010000888
:10103000A4100008002310B59A4200D110BDCC5C6A
:10104000C4540133F8E703001218934200D17047EB
:1010500019700133F9E70000F8B5C046F8BC08BCC8
:101060009E467047F8B5C046F8BC08BC9E4670471F
:1010700002030405060708090A0B0C0D0E0F1010D9
:101080000102030405060708090A0B0C0D0E0F10D8
:101090000000000000000000010203040607080928
:0410A000E90000085B
:0410A400C10000087F
:0410A80000127A00B8
:0400000508000F9947
:00000001FF
